:020000040800F2
:100000000807002091010008C91D00081D170008FD
:10001000C51D000861050008DD1D00080000000086
:10002000000000000000000000000000D11D0008DA
:100030006505000800000000CD1D0008D51D000862
:10004000AB010008AB010008AB010008AB010008E0
:10005000AB010008AB010008AB010008AB010008D0
:10006000AB010008AB010008AB010008AB010008C0
:10007000AB010008AB010008AB010008AB010008B0
:10008000AB010008AB010008AB010008AB010008A0
:10009000AB010008AB010008AB010008AB01000890
:1000A000AB010008AB010008AB010008AB01000880
:1000B000AB010008AB010008AB010008AB01000870
:1000C000AB010008AB010008AB010008AB01000860
:1000D000AB010008AB010008AB010008AB01000850
:1000E000AB010008AB010008AB01000800F002F80A
:1000F00000F03FF80AA090E8000C82448344AAF183
:100100000107DA4501D100F034F8AFF2090EBAE880
:100110000F0013F0010F18BFFB1A43F0010318473B
:1001200094210000B4210000103A24BF78C878C19F
:10013000FAD8520724BF30C830C144BF04680C60ED
:10014000704700000023002400250026103A28BF35
:1001500078C1FBD8520728BF30C148BF0B60704739
:10016000642900F07180002070471FB51FBD10B5D5
:1001700010BD00F0BAF91146FFF7F7FF01F016FFC6
:1001800000F0D8F903B4FFF7F2FF03BC00F0E0F988
:100190000948804709480047FEE7FEE7FEE7FEE71B
:1001A000FEE7FEE7FEE7FEE7FEE7FEE70448054957
:1001B000054A064B70470000D91D0008ED000008F5
:1001C0000801002008070020080300200803002081
:1001D0000FB41CB5074B06AA7B44694600900598EE
:1001E00000F06BF90020694600F07AF91CBC5DF85C
:1001F00014FB00000503000070B504468569006823
:10020000C10601D5302600E02026C00707D070BD0A
:10021000D4E9012130469047206A401C20626D1EBF
:10022000F6D570BD70B5044685690078C00707D162
:1002300070BDD4E9012120209047206A401C206233
:100240006D1EF6D570BD00002DE9F0410646002474
:1002500010687529314616A510D0AFF3008000282C
:1002600002DA404213A507E031688A0701D512A5DA
:1002700002E0490704D511A5012401E0AFF3008095
:1002800000210A2206F1240709E0B0FBF2FCB0FBD2
:10029000F2F302FB1C00303078541846491C002849
:1002A000F3D123462A463046BDE8F04100F0A7B816
:1002B000000000002D0000002B00000020000000C6
:1002C0002DE9F05F894604464FF0000ADFF824B1BB
:1002D000FB44C0F820A02046E168884700287DD074
:1002E000252806D0D4E901219047206A401C2062CD
:1002F000F1E700255F462046E1688847202806464A
:1003000007DB312E05D2B81910F8200C08B10543CF
:10031000F1E7A80701D525F00405C4F81CA00027C3
:10032000C4F818A02A2E09D0304601F09DFF38B33A
:1003300004EB8708303EC8F8186019E059F8041B30
:10034000204604EB87029161E1688847012F064649
:1003500018D1E069002820DA25F020051DE0D8F842
:10036000180000EB800006EB40003038C8F8180099
:100370002046E1688847064601F076FF0028EED166
:10038000012F0AD02E2E08D12046E16888477F1C15
:100390000646022F45F02005C4DBA069002803DAD9
:1003A000404245F00105A061E80701D025F01005A5
:1003B000A6B1A6F14100192802D8203645F40065FF
:1003C0004A463146204625604D46FFF7C9FE60B1DA
:1003D000012807D0ED1D25F0070000E007E000F13F
:1003E000080978E705F1040975E730467AE7206ADD
:1003F000BDE8F09FA21F00007047704770472DE9CD
:10040000F0470D4699469246044600F124080168DB
:10041000880604D5E06921F01001216000E0012088
:10042000A84201DD471B00E00027A1697A1902EB11
:100430000900081AA0612078C00602D42046FFF700
:10044000DBFE002608E0D4E901211AF806009047F7
:10045000206A401C761C20624E45F4DB2078C006E2
:100460000AD52046FFF7C8FE06E0D4E90121302076
:100470009047206A401C2062381EA7F10107F4DC77
:1004800007E0D4E9012118F805009047206A401CD4
:100490002062281EA5F10105F3DC2046FFF7C2FE0D
:1004A0002078000602D50220BDE8F0870120FBE796
:1004B00001694A1C02610878704700B58FB0CDE928
:1004C00001310021059105497944CDE90310114618
:1004D0006846FFF7F5FE0FB000BD0000E5FFFFFF27
:1004E0000A6802F8010B0A607047754600F02CF8A4
:1004F000AE4605006946534620F00700854618B011
:1005000020B5FFF753FEBDE820404FF000064FF046
:1005100000074FF000084FF0000BAC46ACE8C009F4
:10052000ACE8C009ACE8C009ACE8C00921F007019B
:100530008D46704710B50446AFF300802046BDE8F5
:100540001040FFF71FBE0000004870471800002051
:1005500001491820ABBEFEE72600020070470000EC
:10056000FEE7000070470000B0B5044600F01EF939
:10057000054640F20000C2F200000078611C18BF7E
:10058000044400BF00F012F9401BA042FAD3B0BDF2
:100590002DE9F04F82B00E68002E00F0038141F289
:1005A0000042C4F20102042340F2004E904208BF10
:1005B00003234FF6FF7CC4F2010E009300240123B5
:1005C000C1F2100C4FF0000A4FF0000949E000BFE3
:1005D000012704F00C030F229A402BEA020207FACB
:1005E00003F34FEA9A051A4346F82520D1F804B0E0
:1005F00040F20C455FEACB22DEF8082054BF22EA25
:10060000080242EA0802C4F20105CEF808202A686E
:100610005FEA8B2354BF22EA080242EA08022A60FA
:100620005FEA8B33DEF8042054BF22EA080242EA74
:1006300008025FEACB33CEF80420DEF800204FF04A
:10064000010354BF22EA080242EA0802CEF8002061
:100650000E680AF1010A36FA0AF204F1040400F005
:10066000A18003FA0AF816EA080FF1D04E68664531
:1006700012DC122E56D8DFE806F0350B45495555E9
:1006800055555555555555555555554D510000BF66
:10069000D1F80C9046E000BF4FF6FF72C1F2210284
:1006A00096420FDC0022C1F2110296421AD00022BB
:1006B000C1F21202964215D00022C1F221029642E6
:1006C00010D02FE00022C1F2220296420AD000226E
:1006D000C1F23102964205D00022C1F232029642A6
:1006E00020D100BF8A684AB1012A14BFC0F8148023
:1006F000C0F810804FF0080914E000BF4FF0040963
:1007000010E000BFCA6802F108090BE04FF00009D1
:1007100008E000BFCA6802F1040903E0CA6802F1F8
:100720000C0900BF22460646BAF1080F24BF203A42
:10073000043637680F25954027EA050509FA02F2C5
:100740002A433260CA79D2067FF582AF41F218039C
:10075000C4F202031A68AEF57E7642F001021A6016
:100760001A6802F001020192019A2AF0030256F877
:1007700002B040F60002C4F20102904210D040F6EE
:100780000042C4F2010290423FF422AF41F2000263
:10079000C4F20102009F904208BF022719E700BF80
:1007A000002716E702B0BDE8F08F000040F200100D
:1007B000C2F200000068704770B5B8B3044690F804
:1007C0003D0028B9002084F83C00204600F0ECFBF6
:1007D000242084F83D002068016821F001010160B7
:1007E000016841F400410160016821F400410160A9
:1007F00000F090FD48F28041C0F21E0140F6001367
:10080000D4F804E088424FF00001C0F23D0348F202
:10081000A16C4FF0000238BF01219842C0F2010CD8
:1008200038BF0122E64538BF0A460AB1012070BD33
:100830004DF68361C4F21B31A0FB01122168950CB7
:100840004B684FF4967623F03F0343EA9243754397
:1008500044F6D3564B60C1F262060B6AA5FB0656FE
:10086000B50923F03F03E64538BF950C6A1C1A43CF
:100870000A62CA6948F2A0664CF6FF73C0F201062C
:10088000B64522EA03020BD801384FEA4E03B0FB0B
:10089000F3F001306FF31F30042898BF04201EE0EE
:1008A000A368013863B119230EFB03F3B0FBF3F027
:1008B00001306FF31F3078B100F5804008E000BFD1
:1008C0000EEB4E03B0FBF3F001306FF31F3028B195
:1008D00000F5004003E000BF012000E001201043CC
:1008E000C8610868D4E9072320F0C000104318430A
:1008F0000860886848F2FF3204F10C0690434CCE41
:1009000018431043A5698860C86820F0FF00304391
:100910002843C860086840F00100086000202021DA
:10092000206484F83D10206384F83E0070BD000010
:100930002DE9F04383B01E46174689460446FFF76B
:1009400035FF94F83D10202920D10546206800BFCE
:100950008169890716D5FFF729FF411B20681A29ED
:10096000F6D381698907F3D500202021206384F81C
:100970003D1084F83E00216C41F02001216484F890
:100980003C0003E094F83C10012903D1022003B09D
:10099000BDE8F083012184F83C100168C90703D148
:1009A000016841F001010160016840F2020821F490
:1009B00000610160212184F83D10102184F83E106F
:1009C0000021216467626685618DC0F2010821857E
:1009D000A8F10211E162E16A0A9E11F5803F18BF99
:1009E00001291DD1016841F48071016020464FF05A
:1009F000011100223346009500F0E2FF50B120685B
:100A00000068C00544BF4FF400702064012003B0AB
:100A1000BDE8F0832069B0F5804F07D1FE2015E0D6
:100A20000829DFD0216B1229DCD0DFE7062000EA9D
:100A3000D9102168F030086108F1060120463246DD
:100A40002B4601F0A7F80028E0D1FF20216800EA3A
:100A5000090008612046414632462B4601F09AF8CB
:100A60000028D3D10020029020684169029180695A
:100A70000290029806E000BF204631462A4600F068
:100A80003FFF18BB208D68B3204631462A4601F04F
:100A900039F9D8B9606A2168024612F8013B0B6146
:100AA0006262628D013A6285228D531E23854F69F1
:100AB0007F07E1D51B04DFD0437802300B61606211
:100AC000608D01386085901E2085D5E7206C042854
:100AD0009CD12068016841F400710160012003B0DD
:100AE000BDE8F0832068016841F4007101602020B6
:100AF00084F83D00002084F83E0084F83C0003B0F8
:100B0000BDE8F0832DE9F04F85B0044600209946FA
:100B100016460F460490FFF749FE94F83D10202931
:100B200027D10546206800BF816989071CD5FFF7DA
:100B30003DFE411B20681A29F6D381698907F3D548
:100B400000202021206384F83D1084F83E00206CB2
:100B500004F13C0A40F020002064022000218AF8C1
:100B6000001005B0BDE8F08FA2461AF83C1F01291D
:100B700004D1022005B0BDE8F08F00BF01228AF841
:100B800000200368DDE90F180E9ADB0703D1036824
:100B900043F001030360036823F400630360222031
:100BA00084F83D00402084F83E000020206462620A
:100BB0006185608D394620850020CFF6FF70E062A8
:100BC000204632464B46CDF80080019500F0A8FD46
:100BD00020B1012005B0BDE8F08F00BF208D0228B4
:100BE00010D0012824D0002838D10020039020689C
:100BF00041690391816903910399016841F400718E
:100C0000016037E02068016841F400610160EFF3A2
:100C1000108072B6002003902068416903918169B9
:100C200003910399016821F48061016062B621E0BB
:100C30002068016821F480610160EFF3108072B6D2
:100C40000020039020684169039181690391039911
:100C5000016841F40071016062B60BE02068016830
:100C600041F4806101600021039141690391806931
:100C700003900398208D002800F0CA80042740F2DA
:100C800008094BF2895BC0F20107C2F20009C1F208
:100C9000F84B232617E000BF204641462A4600F0C5
:100CA000E9FF002895D12068616A00690870606AD0
:100CB000218D01306062481E2085618D013961857A
:100CC000010400F0A58080B2032865D8022800F056
:100CD0007F800128E0D02046394600224346009517
:100CE00000F06EFE00287FF474AF2068016821F4E4
:100CF00080610160EFF3108072B62068616A00695C
:100D00000870606A218D0130013960622185618D32
:100D100001396185D9F80010C908A1FB0B12110A2D
:100D2000714304910499013904910499002900F058
:100D30007B8021684A6952071DD4049901390491C6
:100D40000499002970D021684A69520713D4049984
:100D5000013904910499002966D021684A69520733
:100D600009D4049901390491049900295CD02168BF
:100D70004A695207D6D50A6842F400720A600969C6
:100D80000170606A218D01306062481E2085608D8F
:100D90000138608562B686E7204641462A4600F063
:100DA00069FF00287FF415AF2068616A0069087048
:100DB000606A2268411C208D616201382085638D44
:100DC000013B638553695B077FF57AAF10696DE777
:100DD0002046394600224346009500F0F1FD0028E8
:100DE0007FF4F7AEEFF3108072B62068616A026894
:100DF00042F40072026000690870606A218D01305F
:100E00006062481E2085608D0138608562B64AE7C1
:100E1000202084F83D00002084F83E0000218AF85C
:100E2000001005B0BDE8F08F00202021206384F879
:100E30003D1084F83E00206C40F02000206462B633
:100E4000012000218AF8001005B0BDE8F08F0000F5
:100E50002DE9F04383B0994616460F460446FFF746
:100E6000A5FC94F83D10202920D10546206800BF3C
:100E70008169890716D5FFF799FC411B20681A295B
:100E8000F6D381698907F3D500202021206384F8F7
:100E90003D1084F83E00216C41F02001216484F86B
:100EA0003C0003E094F83C10012903D1022003B078
:100EB000BDE8F083012284F83C200368DDE90B18CB
:100EC0000A9ADB0703D1036843F001030360036858
:100ED00023F400630360212084F83D00402084F85F
:100EE0003E000020206462626185608D3946208565
:100EF0000020CFF6FF70E062204632464B46CDF828
:100F00000080019500F098FC20B1012003B0BDE8FD
:100F1000F08300BF208D98B9204641462A4600F054
:100F2000EFFC88B3206C0428EFD12068016841F4FD
:100F300000710160012003B0BDE8F0830004EBD034
:100F4000204641462A4600F0DDFE0028EAD1616ACB
:100F50002268084610F8013B1361238D6062581E19
:100F60002085678D013F678557697F07E6D50704B0
:100F7000E4D048781061881C6062981E2085618DDD
:100F800001396185DAE700BF2068016841F400712A
:100F90000160202084F83D00002084F83E0084F8A1
:100FA0003C0003B0BDE8F08310B586B045F20041C7
:100FB0000068C4F2000100228842049202D006B008
:100FC00010BD00BF41F21804C4F20204206840F0D2
:100FD00008002060206800F0080001900198C020FF
:100FE0000290122003900320059001F5384002A9D9
:100FF000FFF7CEFA606840F400106060606800F4AB
:1010000000100190019806B010BD000040F20000F1
:1010100040F20011C2F20000C2F2000100780A683A
:10102000104408607047000080B542F20000C4F22E
:101030000200016841F010010160032000F07AF81D
:101040000F2000F005F800F027F8002080BD000018
:1010500070B540F20006C2F2000640F20801327894
:10106000C2F200014FF47A730968B3FBF2F204464E
:10107000B1FBF2F1084600F03BFB0F2C4FF00105ED
:1010800008D838B94FF0FF3021460022002500F083
:1010900025F87460284670BD82B041F21800C4F291
:1010A00002000168022241F001010160016801F0C3
:1010B000010101910199416841F08051416040680E
:1010C00000F08050009000980420C4F201000168F4
:1010D00062F31A61016002B07047000010B54EF66D
:1010E0000C5CCEF2000CDCF80030C3F3022E8EF064
:1010F0000704042C28BF0424BEF103034FF0FF3E75
:101100000EFA04F438BF0023A14399400EFA03F30A
:101110009A43114300F00F0200F160430901043AC1
:1011200003F564436244002848BF02F10C031970C0
:1011300010BD00004EF60C51CEF200010A684FF6C9
:10114000FF031A4060F30A2242F0806040F0FD7015
:10115000086070472DE9F04381B0002800F08580D9
:1011600042F20008C4F202080446D8F800000D4616
:1011700000F0070088420CD2D8F8000020F00700E9
:101180002843C8F80000D8F8000000F00700A84283
:101190006BD1206841F204098107C4F2020917D516
:1011A000410705D5D9F8001041F4E061C9F80010F5
:1011B000010705D5D9F8001041F46051C9F80010B5
:1011C000D9F80010A26821F0F0011143C9F800100D
:1011D000C00741D1D8F8000000F00700A8420CD9A0
:1011E000D8F8000020F007002843C8F80000D8F81D
:1011F000000000F00700A84237D12068410707D55A
:10120000D9F80010E26821F4E0611143C9F8001038
:10121000000708D5D9F80000216920F4605040EAA1
:10122000C100C9F80000D9F8002002F00C0008281D
:1012300041F20020C0F27A0050D142F2A123C2F361
:101240008341C0F60003595CD2033BD440F6001042
:10125000C0F23D00484341E0606802280AD00128FE
:101260002AD159F8041C890308D4012001B0BDE833
:10127000F08300BF59F8041C8901F6D5D9F8001095
:1012800021F003010843C9F80000FFF78FFA064672
:1012900041F28837D9F80000616800F00C00B0EB2B
:1012A000810F97D0FFF782FA801BB842F2D9032052
:1012B00001B0BDE8F08300BF59F8041C8907D4D5FC
:1012C000DCE700BFD9F8002042F29F23C2F340427E
:1012D000C0F600039A5C4843B0FBF2F0D9F8001066
:1012E00042F28722C1F30311C0F60002515C40F2C2
:1012F000080220FA01F140F20400C2F20000006886
:10130000C2F200021160FFF7A3FE002001B0BDE8A9
:10131000F083000040F2080041F20401C2F2000034
:10132000C4F202010068096842F29722C1F3022167
:10133000C0F60002515CC840704700002DE9F04142
:1013400082B0002868D00446007841F20006C00749
:10135000C4F2020625D0706800F00C0004281BD0EF
:10136000706800F00C00082802D17068C00313D424
:101370006068002800F06881B0F5A02F00F07C8143
:10138000B0F5803F00F07C81306820F48030306020
:10139000306820F4802076E13068800301D56068F1
:1013A000D0B32078800718D5706810F00C0F07D0E4
:1013B000706800F00C0008286ED17068C0036BD410
:1013C0003068800702D52069012825D1306861691D
:1013D00020F0F80040EAC1003060207800071FD4F8
:1013E0002078400732D4E56995B1706800F00C00B0
:1013F000082840F08F80012D0ED07068216A00F41B
:1014000080328A4208D1616A00F47010884203D1A8
:10141000002002B0BDE8F081012002B0BDE8F081FB
:10142000A069002862D00020C4F242200121C0F847
:101430008014FFF7BBF90546706A800700F18C80C5
:10144000FFF7B4F9401B0228F6D92AE1F06910F041
:10145000805808D1F06940F08050F061F06900F0E8
:1014600080500090009847F20007C4F200073868E7
:10147000C00529D4386840F480703860FFF796F9C9
:10148000054600BF3868C0051ED4FFF78FF9401B22
:101490006428F7D905E100BF2069002840F2000068
:1014A000C4F2422000F0828001210160FFF77EF942
:1014B000054600BF306880073FF588AFFFF776F933
:1014C000401B0228F6D9ECE0E068002800F080809C
:1014D000052800F09780012800F09880306A20F0FD
:1014E00001003062306A20F0040092E00020C4F273
:1014F00042200021C0F88014FFF758F9054600BFCC
:10150000706A80077FF56CAFFFF750F9401B022827
:10151000F6D9C6E00027C4F2422700203866FFF75C
:1015200045F9022D05460BD13068800140F1BE809F
:10153000FFF73CF9401B02284FF00300F4D968E79D
:10154000306880017FF564AFFFF730F9401B022857
:101550004FF00300F4D95CE740F20800C2F200004B
:10156000006844F6D351C1F26201A0FB0101480AB0
:10157000019000BF00BF0198411E002801913FF477
:101580002FAF00BF0198411E002801913FF428AF02
:1015900000BF0198411E002801913FF421AF00BF18
:1015A0000198411E00280191E4D119E70021016052
:1015B000FFF7FCF8054600BF306880077FF50DAFE8
:1015C000FFF7F4F8401B02284FF00300F4D920E79E
:1015D000306A20F001003062306A20F0040030628E
:1015E000FFF7E4F8054641F2883700BF306A80070C
:1015F00020D5FFF7DBF8401BB8424FF00300F5D9C8
:1016000007E700BF306A40F004003062306A40F003
:1016100001003062FFF7CAF8054641F2883700BF83
:10162000306A800706D4FFF7C1F8401BB842F7D9EB
:1016300037E000BFB8F1000F7FF4D5AEF06920F0BD
:101640008050F061CFE600BF306820F48030306019
:10165000306820F480203060FFF7A8F8054600BF0E
:10166000306880037FF59DAEFFF7A0F8401B64282B
:101670004FF00300F4D9CCE6306840F480203060AD
:10168000306840F480303060FFF790F8054600BFC6
:10169000306880033FF585AEFFF788F8401B64286B
:1016A000F6D9032002B0BDE8F08100BF206AB0F592
:1016B000803F05D17168A26821F400311143716047
:1016C0007168626A21F4741111430843706001204B
:1016D0003866FFF76BF80446306880013FF598AE36
:1016E000FFF764F8001B02284FF00300F4D990E6DE
:1016F000411E0020B0EB116F1CBF012070474EF25D
:101700001002CEF2000251604EF62351CEF20001DB
:10171000F0230B700721906011607047FEE7000016
:101720002DE9F04782B0044600680E460168DDF8F6
:1017300028A041F4806101600168DDF82C9041F43B
:1017400080711D461746016020464FF001110022AE
:101750005346CDF8009000F033F958B12068006886
:10176000C00544BF4FF400702064032002B0BDE800
:10177000F08700BF40F202082068C0F2010806F0BE
:10178000FE0606612046414652464B4600F002FAEC
:1017900020B1012002B0BDE8F08700BF0020019019
:1017A00020684A464169019180695146019001983B
:1017B000204600F0A7FA98B92068012D08D0390A10
:1017C0000161204651464A4600F09CFA40B9206823
:1017D000F9B20161204651464A4600F093FA58B1E9
:1017E000206C0428D5D12068016841F400710160A3
:1017F000012002B0BDE8F08720680022016853464E
:1018000041F48071016020464FF00111CDF8009045
:1018100000F0D6F80028A1D1206846F0010101614E
:101820002046414652464B4600F0B4F9002818BF06
:10183000012002B0BDE8F0872DE9F04383B00446F3
:1018400000680D4601680A9F0B9E41F4807199461D
:101850009046016020464FF0011100223B46009661
:1018600000F0AEF850B120680068C00544BF4FF4E6
:1018700000702064032003B0BDE8F083206805F009
:10188000FE0101610221C0F2010120463A463346C1
:1018900000F080F920B1012003B0BDE8F08300BF63
:1018A00000200290206832464169029180693946E1
:1018B00002900298204600F025FA58B1206C0428C6
:1018C000E9D12068016841F400710160012003B092
:1018D000BDE8F0832068B9F1010F0AD04FEA182162
:1018E000016120463946324600F00CFA0028E5D165
:1018F00020685FFA88F10161002003B0BDE8F08341
:1019000070B50368044653F8140F400711D40E460F
:10191000481C29D086BB00BF1868400527D4FEF7B5
:1019200045FF236853F8140F400739D5186840075E
:10193000F2D5002070BD00BF18684007F9D41868C0
:10194000400514D418684007F3D4186840050ED435
:1019500018684007EDD41868400508D41868400797
:101960004FF0000048BF70BD18684005E4D56FF423
:1019700080601860042014E0154603E053F8140F4B
:101980004007D6D418684005F1D4FEF70FFF401B7E
:101990002368B042F2D958694007EFD4202000E014
:1019A000202000212022216384F83D2084F83E106D
:1019B000226C10432064012084F83C1070BD0000AC
:1019C0002DE9F041054600681E46144601F47F02E9
:1019D00001338FB242D0DDF81880B2F5803F40F07D
:1019E000878040693840C01BB0FA80F04009A042AF
:1019F00040F0C8804EB924E040693840C01BB0FABE
:101A000080F04009A04240F0BD80FEF7CFFEA0EB81
:101A100008012868B142EFD941693940C91BB1FAC0
:101A200081F14909A142E7D19BE000BF40693840FC
:101A3000C01BB0FA80F04009A0424FF0000040F017
:101A4000A680FEF7B3FE286841693940C91BB1FA88
:101A500081F14909A142E9D183E000BFB2F5803F9D
:101A600024D100BF41693940C91BB1FA81F149094C
:101A7000A14240F0878041693940C91BB1FA81F128
:101A80004909A14240F07E8041693940C91BB1FA41
:101A900081F14909A14275D141693940C91BB1FAA7
:101AA00081F14909A142DDD06CE000BF8169394074
:101AB000C91BB1FA81F14909A14263D18169394059
:101AC000C91BB1FA81F14909A1425BD18169394051
:101AD000C91BB1FA81F14909A14253D18169394049
:101AE000C91BB1FA81F14909A142DFD04AE000BF28
:101AF00080693840C01BB0FA80F04009A04241D153
:101B000046B923E080693840C01BB0FA80F0400934
:101B1000A0423BD1FEF74AFEA0EB08012868B14283
:101B2000F0D981693940C91BB1FA81F14909A14253
:101B3000E8D116E080693840C01BB0FA80F0400957
:101B4000A0424FF0000018BFBDE8F081FEF72EFE66
:101B5000286881693940C91BB1FA81F14909A1425C
:101B6000E8D100202021286385F83D1085F83E004B
:101B7000296C41F02001296485F83C000120BDE872
:101B8000F08100BF0020BDE8F08100BF0020BDE86B
:101B9000F0810000F0B581B0044600681D4643693D
:101BA0008FB203EA0701B94202D1002001B0F0BDB3
:101BB00041691646013201F4806125D0002940D1E7
:101BC000CEB100BFFEF7F2FD411B2068B14203D940
:101BD00041693940B9424BD141693940B942E4D0F9
:101BE00041694905EED52CE041693940B942DCD064
:101BF0004169490525D4FEF7D9FD2068416939407E
:101C0000B942F1D0202024E0D9B941693940B94224
:101C1000CBD04169490514D441693940B942C4D097
:101C2000416949050DD441693940B942BDD0416986
:101C3000490506D441693940B942B6D041694905E0
:101C4000E3D5016841F4007101606FF48061416186
:101C5000042000212022216384F83D2084F83E10D6
:101C6000226C1043206484F83C10012001B0F0BDC8
:101C70002020EEE770B504460068154650F8143F82
:101C80005A063DD40E4629B926E000BF50F8141F6D
:101C9000490635D40168C90621D4FEF787FD411BEA
:101CA0002068B142F2D941694906EFD400202021D1
:101CB000206384F83D1084F83E00206C40F0200042
:101CC00018E000BFFEF772FD206850F8141F4906A7
:101CD000ECD50168490613D40168C906F2D56FF046
:101CE0001001016000202021206384F83D1084F859
:101CF0003E00206C2064002084F83C00012070BD70
:101D0000002070BD70B50368044653F8140F000638
:101D100011D40E46481C29D086BB00BF1868400568
:101D200027D4FEF743FD236853F8140F000639D576
:101D300018680006F2D5002070BD00BF18680006C4
:101D4000F9D41868400514D418680006F3D418684C
:101D500040050ED418680006EDD41868400508D474
:101D6000186800064FF0000048BF70BD18684005B5
:101D7000E4D56FF480601860042014E0154603E099
:101D800053F8140F0006D6D418684005F1D4FEF7B6
:101D90000DFD401B2368B042F2D958690006EFD40C
:101DA000202000E0202000212022216384F83D2013
:101DB00084F83E10226C10432064012084F83C100B
:101DC00070BD0000FEE70000FEE700007047000065
:101DD00070470000FFF71AB970470000FEE70000E7
:101DE00070B582B03220FEF7BFFB40F2AC0443F680
:101DF0003C06C2F20004C0F60C06642501AA204687
:101E00004E21042301960095FEF792FD0520FEF772
:101E1000ABFB01AA20464E21042301960095FEF754
:101E200087FD0120FEF7A0FB01AA20464E210423D6
:101E300001960095FEF77CFD0A20FEF795FB42F621
:101E40002C00C0F60C00019001AA20464E2104236C
:101E50000095FEF76DFD0A20FEF786FB42F62C008A
:101E6000C8F68C00019001AA20464E21042300955B
:101E7000FEF75EFD0120FEF777FB40F60C00C8F68A
:101E80008C00019001AA20464E2104230095FEF704
:101E90004FFD0120FEF768FB40F60C00C1F61C0068
:101EA000019001AA20464E2104230095FEF740FD33
:101EB0000120FEF759FB0120FEF756FB40F60C000F
:101EC000C6F66C00019001AA20464E21042300951D
:101ED000FEF72EFD0120FEF747FB40F60C00CCF686
:101EE000CC00019001AA20464E2104230095FEF764
:101EF0001FFD02B070BD0000012805D0002808BFFA
:101F000041F0800102E000BF41F0C00180B582B025
:101F100021F00F00090100F10C0208308DF80500D6
:101F200001F10C008DF8060001F108008DF80700A2
:101F300040F2AC008DF804204FF0640CC2F20000B7
:101F400001AA4E210423CDF800C0FEF7F1FC02B037
:101F500080BD0000F0B583B0017821B340F2AC043D
:101F6000461E6427C2F2000402AD00BF21F00F003C
:101F7000090100F10D0209308DF8090001F10D0091
:101F80008DF80A0001F109008DF808208DF80B008A
:101F900020464E212A4604230097FEF7C9FCB1785B
:101FA00001360029E2D103B0F0BD000092B0FFF786
:101FB0003BF800240120CDE90D44CDE90B44089005
:101FC0000C904FF4E0100DF120084FF48031022501
:101FD00011904046CDE90914CDE90F51FFF7AEF954
:101FE0000F20CDE903054FF48060CDE9060403A876
:101FF00002210594FFF7AEF841F21800C4F2020086
:10200000016840F2AC0641F0200101600168C2F2B3
:10201000000601F020010891089901684FF4804200
:1020200041F004010160016801F004010891089980
:10203000016841F008010160006848F2A06100F009
:1020400008000890089845F20040C4F20000C0F271
:10205000010186E813003046C6E90342C6E905449B
:10206000C6E90744FEF7A8FBFFF7BAFE40F20C07EB
:10207000C2F2000739784FF0CD0CCDB205FB0CF55C
:10208000ED0A05EB85047A78A1EB440141EA0511DC
:102090008DF82010D1B201FB0CF1C90A01EB8105CA
:1020A000BB78A2EB450242EA01118DF82110D9B2AA
:1020B00001FB0CF1C90A01EB8102F878A3EB4202A3
:1020C00042EA01118DF82210C1B201FB0CF1C90ADC
:1020D00001EB8102A0EB420242EA01113A798DF84C
:1020E0002310D1B201FB0CF1C90A01EB8103A2EB71
:1020F000430242EA01117A798DF82410D1B201FB32
:102100000CF1C90A01EB8103A2EB430242EA01117F
:10211000BA798DF82510D1B201FB0CF0C00A00EBA2
:102120008001A2EB410141EA00108DF82600072052
:102130004FF47A75CDE900803046D021002201238A
:10214000B0464FF47A7B0295FEF782FE40F27806A5
:10215000C2F200060FF2EC0A0FF2FC0908A8009088
:10216000072001904046D02100220123CDF808B07D
:10217000FEF7C8FC9DF820009DF82110050905EB2D
:10218000850500F00F0000EB4500387008099DF848
:10219000222000EB800001F00F0101EB400078707D
:1021A00010099DF8233000EB800002F00F0101EBD5
:1021B0004000B870180900EB800003F00F0101EB3C
:1021C00040009DF82410F870080900EB800001F031
:1021D0000F0101EB40009DF8251038710A0902EB50
:1021E000820201F00F0101EB42019DF82620797176
:1021F000130903EB830302F00F0202EB4305BD71E9
:10220000C2B2CBB2EDB2304651460095FDF7E0FFC9
:102210003C787B78BA7806F119052846494600943F
:10222000FDF7D6FF00200321FFF766FE3046FFF7DB
:1022300091FE01200421FFF75FFE2846FFF78AFE8A
:102240008CE700BF253032642F253032642F3230C6
:102250002530326400000000253032643A253032E7
:10226000643A25303264000030380A2801D2012057
:1022700070470020704704000008000000000000C4
:10228000000200010000100000000000000000013A
:10229000020304060708090000000001020304010C
:1022A0000202030405060708090A0B0C0D0E0F10A5
:1022B00010000000D82200080000002018000000D4
:1022C00028010008F022000818000020F006000095
:1022D00044010008000000000100000010000000A0
:1022E0000024F400002A0D0312061800000000006C
:04000005080000ED02
:00000001FF
